:100000000C9434000C9451000C9451000C94510049
:100010000C9451000C9451000C9451000C9451001C
:100020000C9451000C9451000C9451000C9451000C
:100030000C9451000C9451000C9451000C945100FC
:100040000C9451000C9451000C9451000C945100EC
:100050000C9451000C9451000C9451000C945100DC
:100060000C9451000C94510011241FBECFEFD8E026
:10007000DEBFCDBF11E0A0E0B1E0E8EBF1E002C0EF
:1000800005900D92AC30B107D9F721E0ACE0B1E0BA
:1000900001C01D92A031B207E1F70E9453000C94F9
:1000A000DA000C940000389A399A3A9A3B9A3C9AB2
:1000B0003D9A409A419A429A439A449A459A509856
:1000C000589A41E050E0742F652FA0E0B1E02FEF87
:1000D00084E39CE0215080409040E1F700C00000A4
:1000E00028B1E0910E01F0910F01EE0FFF1FE050DB
:1000F000FF4FCA01008002C0880F991F0A94E2F7DF
:10010000822B88B94899E3CF80910E0190910F011D
:100110008530910589F470930C0160930D0128B12D
:10012000CA011A960C901A9702C0880F991F0A9458
:10013000E2F7822B88B910C0892B71F410920D015F
:1001400010920C0128B1CA010C9002C0880F991FAF
:100150000A94E2F7822B88B980910C0190910D01ED
:10016000892B51F480910E0190910F01019690938B
:100170000F0180930E0109C080910E0190910F0133
:10018000019790930F0180930E0198B1E0910E01B9
:10019000F0910F01EE0FFF1FE050FF4F9A0100801A
:1001A00002C0220F331F0A94E2F7822F8095892321
:0801B00088B98DCFF894FFCF50
:0C01B8000000010002000300040005002C
:00000001FF
